:020000040800F2
:1000000078060020BD010008C5010008C7010008EE
:10001000C9010008CB010008CD0100080000000064
:10002000000000000000000000000000CF010008F8
:10003000D101000800000000D3010008D50100082C
:10004000D7010008D7010008D7010008D701000830
:10005000D7010008D7010008D7010008D701000820
:10006000D7010008D7010008D7010008D701000810
:10007000D7010008D7010008D7010008D701000800
:10008000D7010008D7010008D701000800000000D0
:10009000000000000000000000000000D701000880
:1000A000D7010008D7010008D7010008D7010008D0
:1000B000D7010008D7010008D7010008D7010008C0
:1000C000D7010008D7010008D7010008D7010008B0
:1000D000D7010008D7010008D7010008D7010008A0
:1000E000D7010008D7010008D70100080000000070
:1000F0000000000000000000000000000000000000
:1001000000000000000000000000000000000000EF
:100110000000000000000000D7010008D70100081F
:1001200000F002F800F03AF80AA090E8000C8244CF
:100130008344AAF10107DA4501D100F02FF8AFF2AC
:10014000090EBAE80F0013F0010F18BFFB1A43F0B5
:1001500001031847A0030000C0030000103A24BFA9
:1001600078C878C1FAD8520724BF30C830C144BF1C
:1001700004680C607047000000230024002500265E
:10018000103A28BF78C1FBD8520728BF30C148BFFA
:100190000B6070471FB51FBD10B510BD00F073F99F
:1001A0001146FFF7F7FF00F068F800F091F903B48B
:1001B000FFF7F2FF03BC00F095F900000948804703
:1001C00009480047FEE7FEE7FEE7FEE7FEE7FEE739
:1001D000FEE7FEE7FEE7FEE704480549054A064B51
:1001E0007047000085030008210100087800002006
:1001F00078060020780200207802002030488069CC
:1002000040F010002E4988612E48406820F00C0014
:100210002C4948600846406840F0010048600846A4
:10022000406820F0C00048600846406840F0100078
:1002300048602348C06940F010002149C86141F678
:100240003F70214908850846008840F00800088072
:1002500070471D49888500211B4A91840121118026
:1002600000BF1949098A11F0010FFAD01649098A0D
:1002700021F00101144A11827047FFF7BFFF1EE011
:100280001048006940F480700E4908614FF47A709C
:10029000FFF7DFFF0B48406940F48070094948616F
:1002A0000846006940F4007008614FF47A70FFF767
:1002B000D0FF0448406940F4007002494861DFE71C
:1002C0000010024000100140001000400CB500205A
:1002D000019000906248006840F4803060490860F6
:1002E00000BF5F48006800F4003000900198401C97
:1002F0000190009818B90198B0F5A06FF1D1584855
:10030000006810F4003F02D00120009001E00020BE
:1003100000900098012830D1514840685049486009
:10032000084640684860084640684860084640689B
:1003300020F47C1048600846406840F498104860FB
:100340000846006840F08070086000BF44480068BC
:1003500010F0007FFAD04248406820F00300404986
:1003600048600846406840F00200486000BF3C48D2
:10037000406800F00C000828F9D10CBD10B5FFF75B
:10038000A5FF10BD10B53648006840F001003449A3
:1003900008600846406833490840314948600846CB
:1003A0000068314908402E4908600846006820F47A
:1003B000802008600846406820F4FE0048604FF442
:1003C0001F0088600020C862FFF7D8FF4FF0006070
:1003D0002649086010BD30B500210020002200230E
:1003E0001F4C646804F00C0121B1042906D00829CF
:1003F00025D107E01E4C1F4D2C6024E01C4C1D4DE8
:100400002C6020E0164C646804F47010144C64688E
:1004100004F48032022404EB904022B9164C444389
:10042000144D2C600AE00E4CE46A04F00F04631CC7
:100430000F4CB4FBF3F444430E4D2C6003E00C4C22
:100440000C4D2C6000BF00BF054C6468C4F303145E
:100450000A4D295D074C2468CC40064D2C6030BD08
:10046000001002400000FFF8FFFFF6FE08ED00E07C
:1004700000127A000000002000093D000400002066
:10048000704770477047754600F028F8AE46050083
:100490006946534620F00700854618B020B5FFF79F
:1004A0009BFEBDE820404FF000064FF000074FF0E4
:1004B00000084FF0000B21F00701AC46ACE8C00982
:1004C000ACE8C009ACE8C009ACE8C0098D4670478B
:1004D0000446AFF300802046FFF769FE00487047EE
:1004E0001400002001491820ABBEFEE726000200E0
:1004F00070470000140500080000002014000000F0
:100500005C010008280500081400002064060000B3
:100510007801000800366E010000000000000000B5
:080520000102030406070809AB
:0400000508000121CD
:00000001FF
